:020000040800F2
:1000000078050020C90000086D100008F30E0008F4
:1000100000000000000000000000000000000000E0
:10002000000000000000000000000000B513000800
:1000300000000000000000006F1000088515000897
:10004000DB00000800000000DB000008DB00000807
:10005000DB000008DB000008DB000008DB00000814
:1000600000000000DB000008DB000008DB000008E7
:10007000DB000008DB000008DB00000800000000D7
:10008000ED150008DB00000800000000DB000008A0
:10009000DB000008DB000008DB000008DB000008D4
:1000A000DB000008DB000008DB000008DB000008C4
:1000B000DB0000080348854600F08EF80048004742
:1000C00011180008780500200448804704480047BC
:1000D000FEE7FEE7FEE7FEE7FEE7FEE7EB150008BA
:1000E000B500000830B50B4601460020202201244F
:1000F00009E00D46D5409D4205D31D469540491B5C
:100100002546954040191546521E002DF1DC30BDA4
:10011000F0B51FB40646002082B005464024019188
:1001200000901BE0019922460F46304600F020F86F
:10013000049A059B801A994110D31046194622460D
:1001400000F039F8361A8F4101972246012000212C
:10015000009F00F030F838184D4100902046641E92
:100160000028DFDC019B00982946324607B0F0BD2D
:1001700010B5202A04DB0846203AD040002110BDEB
:100180000B46D340D0402024A21A91400843194680
:1001900010BDD2B201E00270401C491EFBD2704774
:1001A0000022F6E710B513460A4604461946FFF743
:1001B000F0FF204610BD10B5202A04DB0146203A8E
:1001C0009140002010BD914020239C1A0346E3403B
:1001D0001943904010BD0000064C0125064E05E075
:1001E000E36807CC2B430C3C98471034B442F7D358
:1001F000FFF764FF5C1800087C180008F8B50920B8
:100200001021C00600F0A0F9134D00260127002898
:1002100001D02E7400E02F74012189020F4800F0F4
:1002200093F90D4C6034002801D0267400E0277447
:1002300009208021C00600F087F9002801D02E7027
:1002400000E02F700121054800F07EF9002801D060
:100250002670F8BD2770F8BDBC00002000040048DF
:10026000F8B54D4F01214903384600F06DF9642679
:1002700000254A4C0028207805D0002800D1E560F0
:100280000120207003E0012800D1E5602570E068BE
:10029000411CE160642800DDE66009200421C006FD
:1002A00000F052F90028207C05D0002800D1E5613B
:1002B0000120207403E0012800D1E5612574E06984
:1002C000411CE161642800DDE661012189033846B3
:1002D00000F03AF9314F20370028387805D000284F
:1002E00000D1E5620120387003E0012800D1E56209
:1002F0003D70E06A411CE162642800DDE662012194
:100300000903274800F020F90028387C05D0002890
:1003100000D1E5630120387403E0012800D1E563D2
:100320003D74E06B411CE163642800DDE663092055
:100330000221C00600F008F9184F4037002838782D
:1003400005D0002800D1E5640120387003E00128C1
:1003500000D1E5643D70E06C411CE164642800DD7F
:10036000E66409200821C00600F0EEF80028387C79
:1003700007D0002800D1E5650120387405E0E66566
:10038000F8BD012800D1E5653D74E06D411CE165D3
:100390006428F4DCF8BD0000000800485C00002080
:1003A00000040048F8B5002303240125BAE02E46D6
:1003B0009E40B44632407CD00E79B607B60F012E6F
:1003C00001D0022E17D186682746B6465E00B74098
:1003D00000967646BE43B646CF68009EB740764646
:1003E0003743876046686746BE430F79FF06FF0FB5
:1003F0009F40374347600E79F643B6070ED0C66874
:100400002746B4465E00B646B7406646BE43B4468D
:100410008F687646B74066463743C7600E79B607A1
:10042000B60F022E14D1DE08B60036180096366AD2
:100430005F07B446FE0E0F27B646B7406646BE437A
:10044000B4460F697646B74066463743009E37622A
:1004500006682746B4465E00B646B7406646BE43C9
:100460000F79B446BF07BF0F7646B740664637439D
:1004700007604E68B603B60F53D02D4FBE692E43AA
:10048000BE61BE699F08F607F60F2A4EBF00BE196F
:100490000096B6680F27B4469E07360FB646B7409B
:1004A0006646BE430927FF06B446B84202D100277C
:1004B00010E036E0204FB84201D101270AE01F4F7B
:1004C000B84201D1022705E01D4FB84201D10327F0
:1004D00000E005277646B74066463743009EB76082
:1004E000184E36684F689643FF0300D51643154FE4
:1004F0003E607E684F689643BF0300D51643114F98
:100500007E60BE684F689643FF0200D516430D4FCC
:10051000BE60FE684F689643BF0200D51643094A85
:10052000D6605B1C0A681646DE4000D03FE7F8BD87
:10053000001002400000014000040048000800488C
:10054000000C0048000401400069084000D0012070
:100550007047002A01D081617047816270470000B6
:100560000148806870470000080000200248816848
:1005700002788918816070470800002010B506488D
:100580000168102211430160002000F007F800F01C
:1005900027F8002010BD00000020024070B504467E
:1005A0000D4D7D202978C000FFF79CFD01460B48CA
:1005B0000068FFF797FD00F0BFFA002809D1042C6E
:1005C00007D200222146401E00F02AF800206C606D
:1005D00070BD012070BD0000080000200400002054
:1005E00008B5084881690122114381618169114080
:1005F0000091C26901040A43C261C06908400090C9
:1006000008BD000000100240002805DBC106C90E2D
:1006100001208840014908607047000000E100E0C7
:1006200010B501F07FF810BDF8B50F46060059D09F
:100630003A4D2868C007C00FB84209D22868400860
:100640004000384328602868C007C00FB84249D12D
:100650003068334C81070CD5400704D5606807210A
:100660000902084360606068F0218843B16808436C
:1006700060603078C00726D0706801280ED02168ED
:1006800002280ED0890700292CDA616889088900C0
:1006900001436160FFF764FF00900DE0216889036A
:1006A000F1E78901EFE7FFF75BFF0099411A1D4869
:1006B000814201D90320F8BD60680C2108407168AF
:1006C00089008842EFD12868C007C00FB8420BD913
:1006D000286840084000384328602868C007C00FD9
:1006E000B84201D00120F8BD3078400706D56068D7
:1006F000072109028843F1680843606000F018F898
:100700006168094A0906090F515CC8400749086039
:100710000020FFF743FF0020F8BD0000002002404A
:1007200000100240881300004C180008040000204C
:1007300010B514A30FCB88B06C460FC415A30FCB14
:100740000FC4184A51680C200B4603401648042B6E
:1007500016D0082B14D18B021B0F6C46E45CD26AB6
:1007600004AB1207120F9A5CC90305D50023194682
:10077000FFF7CEFC214601E020460C4900F0B9FF0E
:1007800008B010BD02030405060708090A0B0C0D8A
:100790000E0F10100102030405060708090A0B0CCE
:1007A0000D0E0F100010024000127A0000093D00EB
:1007B000FEB5040070D02078DC4DC0074AD06868D0
:1007C0000007800F012807D068680007800F022803
:1007D00009D16868C00306D5286880033AD56068E7
:1007E0000028E7D036E06168012914D00120800498
:1007F000002901D0052914D02A68012109048A435F
:100800002A602968814329606068002816D0FFF7B4
:10081000A7FE06460EE02868012109040843286067
:10082000F2E7296801432960F5E7FFF799FE801B8D
:1008300064286ED828688003F7D50BE0FFF790FE98
:10084000064604E0FFF78CFE801B6428F1D8286878
:100850008003F7D420780126800700283CDA6868F6
:100860000007800F07D068680007800F022809D1B1
:100870006868C00306D42868800716D5E068012898
:100880000AD112E0E0680028286816D030432860BA
:10089000FFF766FE074605E043E1FFF761FEC01B78
:1008A0000228C6D828688007F7D52868F821884329
:1008B0002169C900084328600EE040084000286014
:1008C000FFF74EFE074604E0FFF74AFEC01B022872
:1008D000AFD828688007F7D42078000722D5E069D0
:1008E0000028686A0ED030436862FFF739FE074679
:1008F00004E0FFF735FEC01B02289AD8686A80071B
:10090000F7D50FE0400840006862FFF729FE074670
:1009100005E09DE0FFF724FEC01B022889D8686A25
:100920008007F7D4207804274007002860DA0020E9
:100930000190E869C00008D4E969B8060143E9619B
:10094000E969014001200091019079480168C905D9
:1009500011D40168821511430160FFF701FE009078
:1009600005E0FFF7FDFD0099401A642870D8704833
:100970000068C005F5D5A06801280AD0002801D07C
:10098000052810D0286A400840002862286AB84329
:1009900001E0286A30432862A068002812D0FFF7DF
:1009A000DFFD00900AE0286A38432862F1E7FFF78C
:1009B000D7FD0099411A5F48814249D8286A8007CB
:1009C000F5D50DE0FFF7CCFD009006E0FFF7C8FD80
:1009D0000099411A574881423AD8286A8007F5D4CD
:1009E0000198002804D0E969012000078143E961EA
:1009F0002078C00635D5606901280CD0401D686B91
:100A000023D038436863686B400840006863FFF791
:100A1000A7FD064622E0686B38436863686B304385
:100A20006863FFF79DFD064604E0FFF799FD801B14
:100A300002285BD8686B8007F7D5686BF82188437C
:100A4000A169C900084368630BE0B8436863F4E731
:100A50004CE0FFF785FD801B022847D8686B8007B4
:100A6000F7D4206A00285ED069680907890F022937
:100A700042D0012636060228286805D0B0432860F7
:100A8000FFF76EFD044633E0B0432860FFF768FDD2
:100A9000074604E0FFF764FDC01B022826D828683B
:100AA0008001F7D4E86AE16A000900010843E862BE
:100AB000616AA06A084369683D22120491430843B1
:100AC0006860286830432860FFF74AFD044604E068
:100AD000FFF746FD001B022808D828688001F7D5DB
:100AE00021E0FFF73DFD001B022801D90320FEBDD8
:100AF00028688001F5D416E00128F8D06868E96A12
:100B000001221204636A02409A420AD10907E26A8A
:100B1000090F914205D10F2189040840A16A88423A
:100B200001D00120FEBD0020FEBD000000100240EB
:100B30000070004088130000094910B5401E88422B
:100B400001D9012010BD074C60610321081F00F08E
:100B5000E9FD0020A06107202061002010BD0000F9
:100B6000FFFFFF0000E000E070477047F0B502466D
:100B70002032137F012B1ED00125157702235377D6
:100B800006687468B3687027BC430F6827437760B2
:100B900000680A4CA04205D0094CA04202D0094C82
:100BA000A04204D180244968A3431943816055774A
:100BB00000201077F0BD0220F0BD0000002C0140A5
:100BC000000400400040014070B5040005D02546F7
:100BD0002035687F002802D006E0012070BD00208B
:100BE0002877204600F014F802206877211D20683D
:100BF00000F004FD01204034A071A877E877207050
:100C00006070A070E070207160716877002070BD26
:100C100008B50068094988420FD10948C269022114
:100C20000A43C261C06900220840009011461020AA
:100C3000FFF7F6FC1020FFF7E7FC08BD00040040BA
:100C400000100240014620314A7F012A01D00120D4
:100C5000704702224A770268D36801210B43D360B0
:100C60000068094A904205D0084A904202D0084ADA
:100C7000904204D182685207520F062A02D00268BD
:100C80000A43026000207047002C0140000400402D
:100C900000400140F8B5054604462035287F00266F
:100CA000012817D0012028770220687722689068F1
:100CB0007727FF23B8431B029843906008685028A9
:100CC00038D00EDC20284FD006DC00284CD010286D
:100CD0001ED149E00220F8BD302845D0402817D168
:100CE0003AE060282ED0702819D001221203801A11
:100CF0000FD090420CD1CB684A688968206800F018
:100D0000C1FC20688168012292031143816000E0E8
:100D1000012601206877002028773046F8BDCB688F
:100D20004A688968206800F0ADFC2168886838430B
:100D30008860EEE7CA684968206800F0B6FC502178
:100D4000206806E0CA684968206800F0BFFC60219E
:100D5000206800F0A2FCDCE7CA684968206800F05F
:100D6000A4FC40212068F4E7226801461046F0E721
:100D7000704770B50446006801690025C9438907BA
:100D8000002915DBC168C943890711D4E91E016137
:100D900001202077206880698007204602D0FFF775
:100DA000E7FF04E000F096F8204600F094F825777D
:100DB00020680169C943490717D4C168C943490775
:100DC00013D40421C943016102202077206880697F
:100DD0008005800F204602D0FFF7CAFF04E000F034
:100DE00079F8204600F077F8257720680169C94333
:100DF000090716D4C168C943090712D40821C94399
:100E00000161042020772068C0698007204602D055
:100E1000FFF7AEFF04E000F05DF8204600F05BF85D
:100E2000257720680169C943C90617D4C168C94339
:100E3000C90613D41021C943016108202077206816
:100E4000C0698005800F204602D0FFF791FF04E0C3
:100E500000F040F8204600F03EF825772068016950
:100E6000C943C90708D1C168C943C90704D1891E4C
:100E70000161204600F030F820680169C943090685
:100E800009D4C168C943090605D48021C943016159
:100E90002046FFF769FE20680169C943490609D465
:100EA000C168C943490605D44021C94301612046B0
:100EB00000F01EF820680169C943890609D4C16899
:100EC000C943890605D42021C94301612046FFF7A3
:100ED0004CFE70BD7047704710B5006803498842EA
:100EE00003D1FFF7BDF9FFF789F910BD00040040F9
:100EF0007047FEE7F0B587B014216846FFF750F958
:100F0000384842690121C9040A43426142690A40E2
:100F100005924269C9000A43426142690A4005924A
:100F2000426949110A43426142690A400592426995
:100F300049000A43426140692B4F08400590002256
:100F400001213846FFF705FB092000226021C00679
:100F5000FFF7FFFA03267603002231462348FFF706
:100F6000F8FA072040030024009001946946029497
:100F70001F48FFF717FA0125009502946946384685
:100F800001950394FFF70EFA022000900194694640
:100F900002943846FFF706FA9F200090092001943A
:100FA00069460294C006FFF7FDF960200090092011
:100FB0000294694601950394C006FFF7F3F90D48C2
:100FC00000900194694602940848FFF7EBF90294F7
:100FD00069460648009601950394FFF7E3F907B0C8
:100FE000F0BD00000010024000140048000400485A
:100FF00000080048071C000010B586B000240094CB
:1010000018480194029403940494154905940160CE
:101010001549846041602F210461C1608021816194
:10102000FFF7D2FD002801D072B6FEE701200003D1
:10103000009069460B48FFF72DFE002801D072B6DC
:10104000FEE7049404A907480594FFF78FFD0028E4
:1010500001D072B6FEE70348FFF7F4FD06B010BDFD
:101060000004004014000020E7030000FEE7704782
:10107000F8B5CD4CCB482746037820464030017860
:1010800001268C46017C203700253603E26CE06D9A
:10109000002B7DD06346002B01D15A2A03DA0029A8
:1010A00007D15A2805DB022000F06EFBBD484570D1
:1010B0000570BC488078002819D1022000F064FB3C
:1010C00001223146B948FFF744FAFFF749FA009088
:1010D000FFF746FA0099411AB548814204D300222D
:1010E0003146B248FFF735FAAE4845700570AD4855
:1010F000807801282CD101223146AC48FFF729FA2B
:10110000FFF72EFA00902078002805D1E0685A28D1
:1011100002DB002000F038FB207C002815D1E069BC
:101120005A2812DB022000F02FFBFFF719FA009972
:10113000411A9F48814204D3002231469B48FFF761
:1011400008FA98484570057002E0002000F01CFB8A
:1011500094488078022832D1012231469348FFF723
:10116000F8F9FFF7FDF90090387C002809D1E06B11
:101170005A2806DB8B48012141700570084600F0B3
:1011800003FB3878002817D1E06A5A2814DB00E006
:101190003CE0022000F0F8FAFFF7E2F90099411A6A
:1011A0008348814204D3002231468048FFF7D1F9B9
:1011B0007C484570057002E0002000F0E5FA7948AF
:1011C000807803281FD1012211037848FFF7C1F965
:1011D000FFF7C6F90646387C002815D1E06B5A287F
:1011E00012DB022000F0D0FAFFF7BAF9811B704839
:1011F000814205D30121002209036C48FFF7A9F9B8
:10120000684845700570F8BD0020C7E0654B5B7805
:10121000002B7DD06346002B01D15A2A03DA002926
:1012200007D15A2805DB022000F0AEFA5D48457070
:1012300005705C488078002823D1012231465B4844
:10124000FFF787F9FFF78CF900902078002815D177
:10125000E0685A2812DB022000F096FAFFF780F9C6
:101260000099411A5248814204D3002231464F4826
:10127000FFF76FF94B484570057002E0012000F060
:1012800083FA48488078012830D101223146474806
:10129000FFF75FF9FFF764F900902078002809D183
:1012A000E0685A2806DB002000F06EFA3D48012174
:1012B00045700170207C002815D1E0695A2812DBA6
:1012C000022000F061FAFFF74BF90099411A384803
:1012D000814204D3002231463448FFF73AF93148BD
:1012E0004570057002E0012000F04EFA2D4880782C
:1012F000022832D1012231462C48FFF72AF9FFF7A4
:101300002FF90090387C00280BD1E06B5A2800E0C0
:1013100043E006DB2348012141700570084600F0D8
:1013200033FA3878002815D1E06A5A2812DB0220F7
:1013300000F02AFAFFF714F90099411A1C4881427B
:1013400004D3002231461948FFF703F915484570C8
:10135000057002E0012000F017FA124CA078032873
:1013600000D050E7114E012211033046FFF7F1F88B
:10137000FFF7F6F80746022000F006FAFFF7F0F84C
:10138000C11B0B48814205D30121002209033046CD
:10139000FFF7DFF865702570F8BD022000F0F4F962
:1013A000F8BD0000000000205C00002000040048A0
:1013B00060EA000070470000F8B570480178002925
:1013C0007ED1407800287BD16D4802460178603A92
:1013D000107CD56A8646D069D46884461046203091
:1013E0000678037CD06B1278002935D10227634937
:1013F000002B8F7005D15A2803DB00270F700127BF
:101400000CE0002A01D15A2C05DA7746002F06D1CC
:1014100067465A2F03DB01270F7000274F70002EFD
:1014200004D15A2D02DB00270F704F70012A13D10F
:101430005A2C11DB7746012F0ED167465A2F0BDB52
:10144000012E09D15A2D07DB012B05D15A2803DBC8
:1014500001270F7000274F704949603100910978CA
:10146000002925D103274549002B8F7005D05A2824
:1014700008DB01270F70002703E05A2802DB002752
:101480000F704F70012A13D15A2C11DB7746012FB0
:101490000ED167465A2F0BDB012E09D15A2D07DBDF
:1014A000012B05D15A2803DB01270F7000274F704D
:1014B0000099097C00293BD1304F0121B97000E02F
:1014C00057E0002E01D15A2D03DA002B06D15A28FD
:1014D00004DB2A4900270F70012707E0002A06D104
:1014E0005A2C04DB254901270F7000274F707146E5
:1014F000002906D161465A2903DB204F00213970AB
:101500007970012A14D15A2C12DB714601290FD1AE
:1015100061465A290CDB012E0AD15A2D08DB012B1A
:1015200006D15A2804DB154900270F7001274F7098
:101530001349097C00291CD100271049002A8F700B
:1015400018D00F7001274F70012A12D15A2C10DBCE
:101550007246012A0DD162465A2A0ADB012E08D1B1
:101560005A2D06DB012B04D15A2802DB002008701B
:101570004F70F8BD5A2CFCDB0F70F9E7000000201B
:10158000BC00002010B5FEF7F1FF10BD30B591B0E2
:1015900030216846FEF704FE00240A200F940090D4
:1015A00001200D940C940390079005200E94C00424
:1015B0001021022509940A90089504910B9468461D
:1015C000FFF7F6F8002801D072B6FEE707200C906E
:1015D0000E9401210D950F940CA8FFF725F8002813
:1015E00001D072B6FEE711B030BD704710B50248A9
:1015F000FFF7BFFB10BD000014000020F0B502682B
:101600001A4B1B4C984201D0A04203D17025AA432B
:101610004D682A43174D184E184F98420AD0A042E1
:1016200008D0174CA04205D0A84203D0B04201D048
:10163000B84205D11446032212029443CA682243D9
:101640008024A2434C69224302608A68C2620A680D
:101650008262984205D0A84203D0B04201D0B8427D
:1016600001D10969016301214161F0BD002C0140F4
:101670000004004000400140004401400048014097
:101680000020004030B58468FF252D021B02134363
:10169000AC430B432343836030BD826870239A437D
:1016A0000A4307210A438260704730B5036A046A1F
:1016B0006408640004628469F025AC43120122438B
:1016C0000A24A3430B438261036230BD30B5036A31
:1016D0001024A34303628469036A0F252D031203B8
:1016E000AC432243A024A343090119438261016250
:1016F00030BDF8B5040C8BB2264682B25E430D0CA9
:101700001046370C5843360480190021794116469B
:101710006E43370C36048019794126466E43891989
:10172000F8BD00008307FF22DB0E9A408907090EEF
:101730009940002808DB830809489B001B1818689B
:1017400090430843186070470007000F083883086B
:1017500004489B001B18D86990430843D861704720
:1017600000E400E000ED00E002E008C8121F08C13C
:10177000002AFAD170477047002001E001C1121F12
:10178000002AFBD170470000F8B51E4E0746012124
:10179000002289033046FEF7DCFE1B4C0125257331
:1017A000FEF7DEFE6061002269033046FEF7D1FEDF
:1017B0002570FEF7D5FE154DA060002201212846B8
:1017C000FEF7C7FE38460027002810D001280DD1AB
:1017D000810301223046FEF7BCFE2773FEF7C0FEF0
:1017E0002061012211462846FEF7B3FEF8BD012212
:1017F00051033046FEF7ADFE2770FEF7B1FE606084
:10180000EFE70000000400483C01002000140048FD
:10181000FEF7B4FEFFF7BAFEFFF76CFBFFF7ECFB39
:101820000849012008730A460876203210740870AF
:1018300010710549002048700870FFF7BDFDFFF7E3
:1018400017FCFAE73C010020000000200000000027
:101850000000000001020304060708097C180008C4
:10186000000000201400000068170008901800080D
:101870001400002064050000781700080000000034
:1018800000127A00010000000400000000000000C7
:04000005080000B53A
:00000001FF
